{
  "_format": "hh-sol-artifact-1",
  "contractName": "TokenFactory",
  "sourceName": "contracts/TokenFactory.sol",
  "abi": [
    {
      "anonymous": false,
      "inputs": [
        {
          "indexed": true,
          "internalType": "address",
          "name": "tokenAddress",
          "type": "address"
        },
        {
          "indexed": true,
          "internalType": "address",
          "name": "owner",
          "type": "address"
        },
        {
          "indexed": false,
          "internalType": "string",
          "name": "name",
          "type": "string"
        },
        {
          "indexed": false,
          "internalType": "string",
          "name": "symbol",
          "type": "string"
        }
      ],
      "name": "TokenCreated",
      "type": "event"
    },
    {
      "inputs": [
        {
          "internalType": "string",
          "name": "name",
          "type": "string"
        },
        {
          "internalType": "string",
          "name": "symbol",
          "type": "string"
        },
        {
          "internalType": "uint256",
          "name": "initialSupply",
          "type": "uint256"
        },
        {
          "internalType": "address",
          "name": "owner",
          "type": "address"
        }
      ],
      "name": "createToken",
      "outputs": [
        {
          "internalType": "address",
          "name": "",
          "type": "address"
        }
      ],
      "stateMutability": "nonpayable",
      "type": "function"
    },
    {
      "inputs": [
        {
          "internalType": "uint256",
          "name": "",
          "type": "uint256"
        }
      ],
      "name": "deployedTokens",
      "outputs": [
        {
          "internalType": "address",
          "name": "",
          "type": "address"
        }
      ],
      "stateMutability": "view",
      "type": "function"
    },
    {
      "inputs": [],
      "name": "getDeployedTokens",
      "outputs": [
        {
          "internalType": "address[]",
          "name": "",
          "type": "address[]"
        }
      ],
      "stateMutability": "view",
      "type": "function"
    }
  ],
  "bytecode": "0x608060405234801561001057600080fd5b506126f1806100206000396000f3fe60806040523480156200001157600080fd5b5060043610620000465760003560e01c806334f359f9146200004b578063622ae7aa1462000081578063ec81aadb14620000a3575b600080fd5b620000696004803603810190620000639190620004e9565b620000d9565b604051620000789190620005aa565b60405180910390f35b6200008b620001f5565b6040516200009a919062000695565b60405180910390f35b620000c16004803603810190620000bb9190620006b9565b62000285565b604051620000d09190620005aa565b60405180910390f35b60008085858585604051620000ee90620002c5565b620000fd949392919062000785565b604051809103906000f0801580156200011a573d6000803e3d6000fd5b5090506000819080600181540180825580915050600190039060005260206000200160009091909190916101000a81548173ffffffffffffffffffffffffffffffffffffffff021916908373ffffffffffffffffffffffffffffffffffffffff1602179055508273ffffffffffffffffffffffffffffffffffffffff168173ffffffffffffffffffffffffffffffffffffffff167fd5d05a8421149c74fd223cfc823befb883babf9bf0b0e4d6bf9c8fdb70e59bb48888604051620001e1929190620007e0565b60405180910390a380915050949350505050565b606060008054806020026020016040519081016040528092919081815260200182805480156200027b57602002820191906000526020600020905b8160009054906101000a900473ffffffffffffffffffffffffffffffffffffffff1673ffffffffffffffffffffffffffffffffffffffff168152602001906001019080831162000230575b5050505050905090565b600081815481106200029657600080fd5b906000526020600020016000915054906101000a900473ffffffffffffffffffffffffffffffffffffffff1681565b611ea0806200081c83390190565b6000604051905090565b600080fd5b600080fd5b600080fd5b600080fd5b6000601f19601f8301169050919050565b7f4e487b7100000000000000000000000000000000000000000000000000000000600052604160045260246000fd5b6200033c82620002f1565b810181811067ffffffffffffffff821117156200035e576200035d62000302565b5b80604052505050565b600062000373620002d3565b905062000381828262000331565b919050565b600067ffffffffffffffff821115620003a457620003a362000302565b5b620003af82620002f1565b9050602081019050919050565b82818337600083830152505050565b6000620003e2620003dc8462000386565b62000367565b905082815260208101848484011115620004015762000400620002ec565b5b6200040e848285620003bc565b509392505050565b600082601f8301126200042e576200042d620002e7565b5b813562000440848260208601620003cb565b91505092915050565b6000819050919050565b6200045e8162000449565b81146200046a57600080fd5b50565b6000813590506200047e8162000453565b92915050565b600073ffffffffffffffffffffffffffffffffffffffff82169050919050565b6000620004b18262000484565b9050919050565b620004c381620004a4565b8114620004cf57600080fd5b50565b600081359050620004e381620004b8565b92915050565b60008060008060808587031215620005065762000505620002dd565b5b600085013567ffffffffffffffff811115620005275762000526620002e2565b5b620005358782880162000416565b945050602085013567ffffffffffffffff811115620005595762000558620002e2565b5b620005678782880162000416565b93505060406200057a878288016200046d565b92505060606200058d87828801620004d2565b91505092959194509250565b620005a481620004a4565b82525050565b6000602082019050620005c1600083018462000599565b92915050565b600081519050919050565b600082825260208201905092915050565b6000819050602082019050919050565b620005fe81620004a4565b82525050565b6000620006128383620005f3565b60208301905092915050565b6000602082019050919050565b60006200063882620005c7565b620006448185620005d2565b93506200065183620005e3565b8060005b83811015620006885781516200066c888262000604565b975062000679836200061e565b92505060018101905062000655565b5085935050505092915050565b60006020820190508181036000830152620006b181846200062b565b905092915050565b600060208284031215620006d257620006d1620002dd565b5b6000620006e2848285016200046d565b91505092915050565b600081519050919050565b600082825260208201905092915050565b60005b83811015620007275780820151818401526020810190506200070a565b60008484015250505050565b60006200074082620006eb565b6200074c8185620006f6565b93506200075e81856020860162000707565b6200076981620002f1565b840191505092915050565b6200077f8162000449565b82525050565b60006080820190508181036000830152620007a1818762000733565b90508181036020830152620007b7818662000733565b9050620007c8604083018562000774565b620007d7606083018462000599565b95945050505050565b60006040820190508181036000830152620007fc818562000733565b9050818103602083015262000812818462000733565b9050939250505056fe60806040523480156200001157600080fd5b5060405162001ea038038062001ea08339818101604052810190620000379190620006ec565b80848481600390816200004b9190620009dd565b5080600490816200005d9190620009dd565b505050600073ffffffffffffffffffffffffffffffffffffffff168173ffffffffffffffffffffffffffffffffffffffff1603620000d55760006040517f1e4fbdf7000000000000000000000000000000000000000000000000000000008152600401620000cc919062000ad5565b60405180910390fd5b620000e6816200012d60201b60201c565b506200012381620000fc620001f360201b60201c565b600a6200010a919062000c82565b8462000117919062000cd3565b620001fc60201b60201c565b5050505062000dc4565b6000600560009054906101000a900473ffffffffffffffffffffffffffffffffffffffff16905081600560006101000a81548173ffffffffffffffffffffffffffffffffffffffff021916908373ffffffffffffffffffffffffffffffffffffffff1602179055508173ffffffffffffffffffffffffffffffffffffffff168173ffffffffffffffffffffffffffffffffffffffff167f8be0079c531659141344cd1fd0a4f28419497f9722a3daafe3b4186f6b6457e060405160405180910390a35050565b60006012905090565b600073ffffffffffffffffffffffffffffffffffffffff168273ffffffffffffffffffffffffffffffffffffffff1603620002715760006040517fec442f0500000000000000000000000000000000000000000000000000000000815260040162000268919062000ad5565b60405180910390fd5b62000285600083836200028960201b60201c565b5050565b600073ffffffffffffffffffffffffffffffffffffffff168373ffffffffffffffffffffffffffffffffffffffff1603620002df578060026000828254620002d2919062000d1e565b92505081905550620003b5565b60008060008573ffffffffffffffffffffffffffffffffffffffff1673ffffffffffffffffffffffffffffffffffffffff168152602001908152602001600020549050818110156200036e578381836040517fe450d38c000000000000000000000000000000000000000000000000000000008152600401620003659392919062000d6a565b60405180910390fd5b8181036000808673ffffffffffffffffffffffffffffffffffffffff1673ffffffffffffffffffffffffffffffffffffffff16815260200190815260200160002081905550505b600073ffffffffffffffffffffffffffffffffffffffff168273ffffffffffffffffffffffffffffffffffffffff16036200040057806002600082825403925050819055506200044d565b806000808473ffffffffffffffffffffffffffffffffffffffff1673ffffffffffffffffffffffffffffffffffffffff168152602001908152602001600020600082825401925050819055505b8173ffffffffffffffffffffffffffffffffffffffff168373ffffffffffffffffffffffffffffffffffffffff167fddf252ad1be2c89b69c2b068fc378daa952ba7f163c4a11628f55a4df523b3ef83604051620004ac919062000da7565b60405180910390a3505050565b6000604051905090565b600080fd5b600080fd5b600080fd5b600080fd5b6000601f19601f8301169050919050565b7f4e487b7100000000000000000000000000000000000000000000000000000000600052604160045260246000fd5b6200052282620004d7565b810181811067ffffffffffffffff82111715620005445762000543620004e8565b5b80604052505050565b600062000559620004b9565b905062000567828262000517565b919050565b600067ffffffffffffffff8211156200058a5762000589620004e8565b5b6200059582620004d7565b9050602081019050919050565b60005b83811015620005c2578082015181840152602081019050620005a5565b60008484015250505050565b6000620005e5620005df846200056c565b6200054d565b905082815260208101848484011115620006045762000603620004d2565b5b62000611848285620005a2565b509392505050565b600082601f830112620006315762000630620004cd565b5b815162000643848260208601620005ce565b91505092915050565b6000819050919050565b62000661816200064c565b81146200066d57600080fd5b50565b600081519050620006818162000656565b92915050565b600073ffffffffffffffffffffffffffffffffffffffff82169050919050565b6000620006b48262000687565b9050919050565b620006c681620006a7565b8114620006d257600080fd5b50565b600081519050620006e681620006bb565b92915050565b60008060008060808587031215620007095762000708620004c3565b5b600085015167ffffffffffffffff8111156200072a5762000729620004c8565b5b620007388782880162000619565b945050602085015167ffffffffffffffff8111156200075c576200075b620004c8565b5b6200076a8782880162000619565b93505060406200077d8782880162000670565b92505060606200079087828801620006d5565b91505092959194509250565b600081519050919050565b7f4e487b7100000000000000000000000000000000000000000000000000000000600052602260045260246000fd5b60006002820490506001821680620007ef57607f821691505b602082108103620008055762000804620007a7565b5b50919050565b60008190508160005260206000209050919050565b60006020601f8301049050919050565b600082821b905092915050565b6000600883026200086f7fffffffffffffffffffffffffffffffffffffffffffffffffffffffffffffffff8262000830565b6200087b868362000830565b95508019841693508086168417925050509392505050565b6000819050919050565b6000620008be620008b8620008b2846200064c565b62000893565b6200064c565b9050919050565b6000819050919050565b620008da836200089d565b620008f2620008e982620008c5565b8484546200083d565b825550505050565b600090565b62000909620008fa565b62000916818484620008cf565b505050565b5b818110156200093e5762000932600082620008ff565b6001810190506200091c565b5050565b601f8211156200098d5762000957816200080b565b620009628462000820565b8101602085101562000972578190505b6200098a620009818562000820565b8301826200091b565b50505b505050565b600082821c905092915050565b6000620009b26000198460080262000992565b1980831691505092915050565b6000620009cd83836200099f565b9150826002028217905092915050565b620009e8826200079c565b67ffffffffffffffff81111562000a045762000a03620004e8565b5b62000a108254620007d6565b62000a1d82828562000942565b600060209050601f83116001811462000a55576000841562000a40578287015190505b62000a4c8582620009bf565b86555062000abc565b601f19841662000a65866200080b565b60005b8281101562000a8f5784890151825560018201915060208501945060208101905062000a68565b8683101562000aaf578489015162000aab601f8916826200099f565b8355505b6001600288020188555050505b505050505050565b62000acf81620006a7565b82525050565b600060208201905062000aec600083018462000ac4565b92915050565b7f4e487b7100000000000000000000000000000000000000000000000000000000600052601160045260246000fd5b60008160011c9050919050565b6000808291508390505b600185111562000b805780860481111562000b585762000b5762000af2565b5b600185161562000b685780820291505b808102905062000b788562000b21565b945062000b38565b94509492505050565b60008262000b9b576001905062000c6e565b8162000bab576000905062000c6e565b816001811462000bc4576002811462000bcf5762000c05565b600191505062000c6e565b60ff84111562000be45762000be362000af2565b5b8360020a91508482111562000bfe5762000bfd62000af2565b5b5062000c6e565b5060208310610133831016604e8410600b841016171562000c3f5782820a90508381111562000c395762000c3862000af2565b5b62000c6e565b62000c4e848484600162000b2e565b9250905081840481111562000c685762000c6762000af2565b5b81810290505b9392505050565b600060ff82169050919050565b600062000c8f826200064c565b915062000c9c8362000c75565b925062000ccb7fffffffffffffffffffffffffffffffffffffffffffffffffffffffffffffffff848462000b89565b905092915050565b600062000ce0826200064c565b915062000ced836200064c565b925082820262000cfd816200064c565b9150828204841483151762000d175762000d1662000af2565b5b5092915050565b600062000d2b826200064c565b915062000d38836200064c565b925082820190508082111562000d535762000d5262000af2565b5b92915050565b62000d64816200064c565b82525050565b600060608201905062000d81600083018662000ac4565b62000d90602083018562000d59565b62000d9f604083018462000d59565b949350505050565b600060208201905062000dbe600083018462000d59565b92915050565b6110cc8062000dd46000396000f3fe608060405234801561001057600080fd5b50600436106100b45760003560e01c8063715018a611610071578063715018a6146101a35780638da5cb5b146101ad57806395d89b41146101cb578063a9059cbb146101e9578063dd62ed3e14610219578063f2fde38b14610249576100b4565b806306fdde03146100b9578063095ea7b3146100d757806318160ddd1461010757806323b872dd14610125578063313ce5671461015557806370a0823114610173575b600080fd5b6100c1610265565b6040516100ce9190610d20565b60405180910390f35b6100f160048036038101906100ec9190610ddb565b6102f7565b6040516100fe9190610e36565b60405180910390f35b61010f61031a565b60405161011c9190610e60565b60405180910390f35b61013f600480360381019061013a9190610e7b565b610324565b60405161014c9190610e36565b60405180910390f35b61015d610353565b60405161016a9190610eea565b60405180910390f35b61018d60048036038101906101889190610f05565b61035c565b60405161019a9190610e60565b60405180910390f35b6101ab6103a4565b005b6101b56103b8565b6040516101c29190610f41565b60405180910390f35b6101d36103e2565b6040516101e09190610d20565b60405180910390f35b61020360048036038101906101fe9190610ddb565b610474565b6040516102109190610e36565b60405180910390f35b610233600480360381019061022e9190610f5c565b610497565b6040516102409190610e60565b60405180910390f35b610263600480360381019061025e9190610f05565b61051e565b005b60606003805461027490610fcb565b80601f01602080910402602001604051908101604052809291908181526020018280546102a090610fcb565b80156102ed5780601f106102c2576101008083540402835291602001916102ed565b820191906000526020600020905b8154815290600101906020018083116102d057829003601f168201915b5050505050905090565b6000806103026105a4565b905061030f8185856105ac565b600191505092915050565b6000600254905090565b60008061032f6105a4565b905061033c8582856105be565b610347858585610653565b60019150509392505050565b60006012905090565b60008060008373ffffffffffffffffffffffffffffffffffffffff1673ffffffffffffffffffffffffffffffffffffffff168152602001908152602001600020549050919050565b6103ac610747565b6103b660006107ce565b565b6000600560009054906101000a900473ffffffffffffffffffffffffffffffffffffffff16905090565b6060600480546103f190610fcb565b80601f016020809104026020016040519081016040528092919081815260200182805461041d90610fcb565b801561046a5780601f1061043f5761010080835404028352916020019161046a565b820191906000526020600020905b81548152906001019060200180831161044d57829003601f168201915b5050505050905090565b60008061047f6105a4565b905061048c818585610653565b600191505092915050565b6000600160008473ffffffffffffffffffffffffffffffffffffffff1673ffffffffffffffffffffffffffffffffffffffff16815260200190815260200160002060008373ffffffffffffffffffffffffffffffffffffffff1673ffffffffffffffffffffffffffffffffffffffff16815260200190815260200160002054905092915050565b610526610747565b600073ffffffffffffffffffffffffffffffffffffffff168173ffffffffffffffffffffffffffffffffffffffff16036105985760006040517f1e4fbdf700000000000000000000000000000000000000000000000000000000815260040161058f9190610f41565b60405180910390fd5b6105a1816107ce565b50565b600033905090565b6105b98383836001610894565b505050565b60006105ca8484610497565b90507fffffffffffffffffffffffffffffffffffffffffffffffffffffffffffffffff81101561064d578181101561063d578281836040517ffb8f41b200000000000000000000000000000000000000000000000000000000815260040161063493929190610ffc565b60405180910390fd5b61064c84848484036000610894565b5b50505050565b600073ffffffffffffffffffffffffffffffffffffffff168373ffffffffffffffffffffffffffffffffffffffff16036106c55760006040517f96c6fd1e0000000000000000000000000000000000000000000000000000000081526004016106bc9190610f41565b60405180910390fd5b600073ffffffffffffffffffffffffffffffffffffffff168273ffffffffffffffffffffffffffffffffffffffff16036107375760006040517fec442f0500000000000000000000000000000000000000000000000000000000815260040161072e9190610f41565b60405180910390fd5b610742838383610a6b565b505050565b61074f6105a4565b73ffffffffffffffffffffffffffffffffffffffff1661076d6103b8565b73ffffffffffffffffffffffffffffffffffffffff16146107cc576107906105a4565b6040517f118cdaa70000000000000000000000000000000000000000000000000000000081526004016107c39190610f41565b60405180910390fd5b565b6000600560009054906101000a900473ffffffffffffffffffffffffffffffffffffffff16905081600560006101000a81548173ffffffffffffffffffffffffffffffffffffffff021916908373ffffffffffffffffffffffffffffffffffffffff1602179055508173ffffffffffffffffffffffffffffffffffffffff168173ffffffffffffffffffffffffffffffffffffffff167f8be0079c531659141344cd1fd0a4f28419497f9722a3daafe3b4186f6b6457e060405160405180910390a35050565b600073ffffffffffffffffffffffffffffffffffffffff168473ffffffffffffffffffffffffffffffffffffffff16036109065760006040517fe602df050000000000000000000000000000000000000000000000000000000081526004016108fd9190610f41565b60405180910390fd5b600073ffffffffffffffffffffffffffffffffffffffff168373ffffffffffffffffffffffffffffffffffffffff16036109785760006040517f94280d6200000000000000000000000000000000000000000000000000000000815260040161096f9190610f41565b60405180910390fd5b81600160008673ffffffffffffffffffffffffffffffffffffffff1673ffffffffffffffffffffffffffffffffffffffff16815260200190815260200160002060008573ffffffffffffffffffffffffffffffffffffffff1673ffffffffffffffffffffffffffffffffffffffff168152602001908152602001600020819055508015610a65578273ffffffffffffffffffffffffffffffffffffffff168473ffffffffffffffffffffffffffffffffffffffff167f8c5be1e5ebec7d5bd14f71427d1e84f3dd0314c0f7b2291e5b200ac8c7c3b92584604051610a5c9190610e60565b60405180910390a35b50505050565b600073ffffffffffffffffffffffffffffffffffffffff168373ffffffffffffffffffffffffffffffffffffffff1603610abd578060026000828254610ab19190611062565b92505081905550610b90565b60008060008573ffffffffffffffffffffffffffffffffffffffff1673ffffffffffffffffffffffffffffffffffffffff16815260200190815260200160002054905081811015610b49578381836040517fe450d38c000000000000000000000000000000000000000000000000000000008152600401610b4093929190610ffc565b60405180910390fd5b8181036000808673ffffffffffffffffffffffffffffffffffffffff1673ffffffffffffffffffffffffffffffffffffffff16815260200190815260200160002081905550505b600073ffffffffffffffffffffffffffffffffffffffff168273ffffffffffffffffffffffffffffffffffffffff1603610bd95780600260008282540392505081905550610c26565b806000808473ffffffffffffffffffffffffffffffffffffffff1673ffffffffffffffffffffffffffffffffffffffff168152602001908152602001600020600082825401925050819055505b8173ffffffffffffffffffffffffffffffffffffffff168373ffffffffffffffffffffffffffffffffffffffff167fddf252ad1be2c89b69c2b068fc378daa952ba7f163c4a11628f55a4df523b3ef83604051610c839190610e60565b60405180910390a3505050565b600081519050919050565b600082825260208201905092915050565b60005b83811015610cca578082015181840152602081019050610caf565b60008484015250505050565b6000601f19601f8301169050919050565b6000610cf282610c90565b610cfc8185610c9b565b9350610d0c818560208601610cac565b610d1581610cd6565b840191505092915050565b60006020820190508181036000830152610d3a8184610ce7565b905092915050565b600080fd5b600073ffffffffffffffffffffffffffffffffffffffff82169050919050565b6000610d7282610d47565b9050919050565b610d8281610d67565b8114610d8d57600080fd5b50565b600081359050610d9f81610d79565b92915050565b6000819050919050565b610db881610da5565b8114610dc357600080fd5b50565b600081359050610dd581610daf565b92915050565b60008060408385031215610df257610df1610d42565b5b6000610e0085828601610d90565b9250506020610e1185828601610dc6565b9150509250929050565b60008115159050919050565b610e3081610e1b565b82525050565b6000602082019050610e4b6000830184610e27565b92915050565b610e5a81610da5565b82525050565b6000602082019050610e756000830184610e51565b92915050565b600080600060608486031215610e9457610e93610d42565b5b6000610ea286828701610d90565b9350506020610eb386828701610d90565b9250506040610ec486828701610dc6565b9150509250925092565b600060ff82169050919050565b610ee481610ece565b82525050565b6000602082019050610eff6000830184610edb565b92915050565b600060208284031215610f1b57610f1a610d42565b5b6000610f2984828501610d90565b91505092915050565b610f3b81610d67565b82525050565b6000602082019050610f566000830184610f32565b92915050565b60008060408385031215610f7357610f72610d42565b5b6000610f8185828601610d90565b9250506020610f9285828601610d90565b9150509250929050565b7f4e487b7100000000000000000000000000000000000000000000000000000000600052602260045260246000fd5b60006002820490506001821680610fe357607f821691505b602082108103610ff657610ff5610f9c565b5b50919050565b60006060820190506110116000830186610f32565b61101e6020830185610e51565b61102b6040830184610e51565b949350505050565b7f4e487b7100000000000000000000000000000000000000000000000000000000600052601160045260246000fd5b600061106d82610da5565b915061107883610da5565b92508282019050808211156110905761108f611033565b5b9291505056fea2646970667358221220e4b8f1c5e752509642a471b32359b47950a77b3695f1a9ec89d5c7603bb0ee6f64736f6c63430008180033a264697066735822122089ec58595566528e5d0191a86617cd73a49c352c7ba28e7a7efc184c58cc7e6b64736f6c63430008180033",
  "linkReferences": {},
  "deployedLinkReferences": {}
}