{
  "_format": "hh-sol-artifact-1",
  "contractName": "InfluencerNFT",
  "sourceName": "contracts/InfluencerNFT.sol",
  "abi": [
    {
      "inputs": [
        {
          "internalType": "string",
          "name": "name",
          "type": "string"
        },
        {
          "internalType": "string",
          "name": "symbol",
          "type": "string"
        },
        {
          "internalType": "address",
          "name": "initialOwner",
          "type": "address"
        },
        {
          "internalType": "string",
          "name": "tokenURI",
          "type": "string"
        },
        {
          "internalType": "uint256",
          "name": "quantity",
          "type": "uint256"
        }
      ],
      "stateMutability": "nonpayable",
      "type": "constructor"
    },
    {
      "inputs": [
        {
          "internalType": "address",
          "name": "sender",
          "type": "address"
        },
        {
          "internalType": "uint256",
          "name": "tokenId",
          "type": "uint256"
        },
        {
          "internalType": "address",
          "name": "owner",
          "type": "address"
        }
      ],
      "name": "ERC721IncorrectOwner",
      "type": "error"
    },
    {
      "inputs": [
        {
          "internalType": "address",
          "name": "operator",
          "type": "address"
        },
        {
          "internalType": "uint256",
          "name": "tokenId",
          "type": "uint256"
        }
      ],
      "name": "ERC721InsufficientApproval",
      "type": "error"
    },
    {
      "inputs": [
        {
          "internalType": "address",
          "name": "approver",
          "type": "address"
        }
      ],
      "name": "ERC721InvalidApprover",
      "type": "error"
    },
    {
      "inputs": [
        {
          "internalType": "address",
          "name": "operator",
          "type": "address"
        }
      ],
      "name": "ERC721InvalidOperator",
      "type": "error"
    },
    {
      "inputs": [
        {
          "internalType": "address",
          "name": "owner",
          "type": "address"
        }
      ],
      "name": "ERC721InvalidOwner",
      "type": "error"
    },
    {
      "inputs": [
        {
          "internalType": "address",
          "name": "receiver",
          "type": "address"
        }
      ],
      "name": "ERC721InvalidReceiver",
      "type": "error"
    },
    {
      "inputs": [
        {
          "internalType": "address",
          "name": "sender",
          "type": "address"
        }
      ],
      "name": "ERC721InvalidSender",
      "type": "error"
    },
    {
      "inputs": [
        {
          "internalType": "uint256",
          "name": "tokenId",
          "type": "uint256"
        }
      ],
      "name": "ERC721NonexistentToken",
      "type": "error"
    },
    {
      "inputs": [
        {
          "internalType": "address",
          "name": "owner",
          "type": "address"
        }
      ],
      "name": "OwnableInvalidOwner",
      "type": "error"
    },
    {
      "inputs": [
        {
          "internalType": "address",
          "name": "account",
          "type": "address"
        }
      ],
      "name": "OwnableUnauthorizedAccount",
      "type": "error"
    },
    {
      "anonymous": false,
      "inputs": [
        {
          "indexed": true,
          "internalType": "address",
          "name": "owner",
          "type": "address"
        },
        {
          "indexed": true,
          "internalType": "address",
          "name": "approved",
          "type": "address"
        },
        {
          "indexed": true,
          "internalType": "uint256",
          "name": "tokenId",
          "type": "uint256"
        }
      ],
      "name": "Approval",
      "type": "event"
    },
    {
      "anonymous": false,
      "inputs": [
        {
          "indexed": true,
          "internalType": "address",
          "name": "owner",
          "type": "address"
        },
        {
          "indexed": true,
          "internalType": "address",
          "name": "operator",
          "type": "address"
        },
        {
          "indexed": false,
          "internalType": "bool",
          "name": "approved",
          "type": "bool"
        }
      ],
      "name": "ApprovalForAll",
      "type": "event"
    },
    {
      "anonymous": false,
      "inputs": [
        {
          "indexed": false,
          "internalType": "uint256",
          "name": "_fromTokenId",
          "type": "uint256"
        },
        {
          "indexed": false,
          "internalType": "uint256",
          "name": "_toTokenId",
          "type": "uint256"
        }
      ],
      "name": "BatchMetadataUpdate",
      "type": "event"
    },
    {
      "anonymous": false,
      "inputs": [
        {
          "indexed": false,
          "internalType": "uint256",
          "name": "_tokenId",
          "type": "uint256"
        }
      ],
      "name": "MetadataUpdate",
      "type": "event"
    },
    {
      "anonymous": false,
      "inputs": [
        {
          "indexed": true,
          "internalType": "address",
          "name": "previousOwner",
          "type": "address"
        },
        {
          "indexed": true,
          "internalType": "address",
          "name": "newOwner",
          "type": "address"
        }
      ],
      "name": "OwnershipTransferred",
      "type": "event"
    },
    {
      "anonymous": false,
      "inputs": [
        {
          "indexed": true,
          "internalType": "address",
          "name": "from",
          "type": "address"
        },
        {
          "indexed": true,
          "internalType": "address",
          "name": "to",
          "type": "address"
        },
        {
          "indexed": true,
          "internalType": "uint256",
          "name": "tokenId",
          "type": "uint256"
        }
      ],
      "name": "Transfer",
      "type": "event"
    },
    {
      "inputs": [
        {
          "internalType": "address",
          "name": "to",
          "type": "address"
        },
        {
          "internalType": "uint256",
          "name": "tokenId",
          "type": "uint256"
        }
      ],
      "name": "approve",
      "outputs": [],
      "stateMutability": "nonpayable",
      "type": "function"
    },
    {
      "inputs": [
        {
          "internalType": "address",
          "name": "owner",
          "type": "address"
        }
      ],
      "name": "balanceOf",
      "outputs": [
        {
          "internalType": "uint256",
          "name": "",
          "type": "uint256"
        }
      ],
      "stateMutability": "view",
      "type": "function"
    },
    {
      "inputs": [
        {
          "internalType": "uint256",
          "name": "tokenId",
          "type": "uint256"
        }
      ],
      "name": "getApproved",
      "outputs": [
        {
          "internalType": "address",
          "name": "",
          "type": "address"
        }
      ],
      "stateMutability": "view",
      "type": "function"
    },
    {
      "inputs": [
        {
          "internalType": "address",
          "name": "owner",
          "type": "address"
        },
        {
          "internalType": "address",
          "name": "operator",
          "type": "address"
        }
      ],
      "name": "isApprovedForAll",
      "outputs": [
        {
          "internalType": "bool",
          "name": "",
          "type": "bool"
        }
      ],
      "stateMutability": "view",
      "type": "function"
    },
    {
      "inputs": [],
      "name": "name",
      "outputs": [
        {
          "internalType": "string",
          "name": "",
          "type": "string"
        }
      ],
      "stateMutability": "view",
      "type": "function"
    },
    {
      "inputs": [],
      "name": "owner",
      "outputs": [
        {
          "internalType": "address",
          "name": "",
          "type": "address"
        }
      ],
      "stateMutability": "view",
      "type": "function"
    },
    {
      "inputs": [
        {
          "internalType": "uint256",
          "name": "tokenId",
          "type": "uint256"
        }
      ],
      "name": "ownerOf",
      "outputs": [
        {
          "internalType": "address",
          "name": "",
          "type": "address"
        }
      ],
      "stateMutability": "view",
      "type": "function"
    },
    {
      "inputs": [],
      "name": "renounceOwnership",
      "outputs": [],
      "stateMutability": "nonpayable",
      "type": "function"
    },
    {
      "inputs": [
        {
          "internalType": "address",
          "name": "from",
          "type": "address"
        },
        {
          "internalType": "address",
          "name": "to",
          "type": "address"
        },
        {
          "internalType": "uint256",
          "name": "tokenId",
          "type": "uint256"
        }
      ],
      "name": "safeTransferFrom",
      "outputs": [],
      "stateMutability": "nonpayable",
      "type": "function"
    },
    {
      "inputs": [
        {
          "internalType": "address",
          "name": "from",
          "type": "address"
        },
        {
          "internalType": "address",
          "name": "to",
          "type": "address"
        },
        {
          "internalType": "uint256",
          "name": "tokenId",
          "type": "uint256"
        },
        {
          "internalType": "bytes",
          "name": "data",
          "type": "bytes"
        }
      ],
      "name": "safeTransferFrom",
      "outputs": [],
      "stateMutability": "nonpayable",
      "type": "function"
    },
    {
      "inputs": [
        {
          "internalType": "address",
          "name": "operator",
          "type": "address"
        },
        {
          "internalType": "bool",
          "name": "approved",
          "type": "bool"
        }
      ],
      "name": "setApprovalForAll",
      "outputs": [],
      "stateMutability": "nonpayable",
      "type": "function"
    },
    {
      "inputs": [
        {
          "internalType": "bytes4",
          "name": "interfaceId",
          "type": "bytes4"
        }
      ],
      "name": "supportsInterface",
      "outputs": [
        {
          "internalType": "bool",
          "name": "",
          "type": "bool"
        }
      ],
      "stateMutability": "view",
      "type": "function"
    },
    {
      "inputs": [],
      "name": "symbol",
      "outputs": [
        {
          "internalType": "string",
          "name": "",
          "type": "string"
        }
      ],
      "stateMutability": "view",
      "type": "function"
    },
    {
      "inputs": [
        {
          "internalType": "uint256",
          "name": "tokenId",
          "type": "uint256"
        }
      ],
      "name": "tokenURI",
      "outputs": [
        {
          "internalType": "string",
          "name": "",
          "type": "string"
        }
      ],
      "stateMutability": "view",
      "type": "function"
    },
    {
      "inputs": [
        {
          "internalType": "address",
          "name": "from",
          "type": "address"
        },
        {
          "internalType": "address",
          "name": "to",
          "type": "address"
        },
        {
          "internalType": "uint256",
          "name": "tokenId",
          "type": "uint256"
        }
      ],
      "name": "transferFrom",
      "outputs": [],
      "stateMutability": "nonpayable",
      "type": "function"
    },
    {
      "inputs": [
        {
          "internalType": "address",
          "name": "newOwner",
          "type": "address"
        }
      ],
      "name": "transferOwnership",
      "outputs": [],
      "stateMutability": "nonpayable",
      "type": "function"
    }
  ],
  "bytecode": "0x60806040523480156200001157600080fd5b506040516200368538038062003685833981810160405281019062000037919062000f5a565b82858581600090816200004b919062001280565b5080600190816200005d919062001280565b505050600073ffffffffffffffffffffffffffffffffffffffff168173ffffffffffffffffffffffffffffffffffffffff1603620000d55760006040517f1e4fbdf7000000000000000000000000000000000000000000000000000000008152600401620000cc919062001378565b60405180910390fd5b620000e6816200017760201b60201c565b50600081116200012d576040517f08c379a000000000000000000000000000000000000000000000000000000000815260040162000124906200141c565b60405180910390fd5b60005b818110156200016b576200014b84826200023d60201b60201c565b6200015d81846200026360201b60201c565b808060010191505062000130565b505050505050620015d9565b6000600760009054906101000a900473ffffffffffffffffffffffffffffffffffffffff16905081600760006101000a81548173ffffffffffffffffffffffffffffffffffffffff021916908373ffffffffffffffffffffffffffffffffffffffff1602179055508173ffffffffffffffffffffffffffffffffffffffff168173ffffffffffffffffffffffffffffffffffffffff167f8be0079c531659141344cd1fd0a4f28419497f9722a3daafe3b4186f6b6457e060405160405180910390a35050565b6200025f828260405180602001604052806000815250620002c360201b60201c565b5050565b8060066000848152602001908152602001600020908162000285919062001280565b507ff8e1a15aba9398e019f0b49df1a4fde98ee17ae345cb5f6b5e2c27f5033e8ce782604051620002b791906200144f565b60405180910390a15050565b620002d58383620002ff60201b60201c565b620002fa620002e96200040660201b60201c565b60008585856200040e60201b60201c565b505050565b600073ffffffffffffffffffffffffffffffffffffffff168273ffffffffffffffffffffffffffffffffffffffff1603620003745760006040517f64a0ae920000000000000000000000000000000000000000000000000000000081526004016200036b919062001378565b60405180910390fd5b60006200038a83836000620005ce60201b60201c565b9050600073ffffffffffffffffffffffffffffffffffffffff168173ffffffffffffffffffffffffffffffffffffffff1614620004015760006040517f73c6ac6e000000000000000000000000000000000000000000000000000000008152600401620003f8919062001378565b60405180910390fd5b505050565b600033905090565b60008373ffffffffffffffffffffffffffffffffffffffff163b1115620005c7578273ffffffffffffffffffffffffffffffffffffffff1663150b7a02868685856040518563ffffffff1660e01b8152600401620004709493929190620014c9565b6020604051808303816000875af1925050508015620004af57506040513d601f19601f82011682018060405250810190620004ac91906200157a565b60015b62000539573d8060008114620004e2576040519150601f19603f3d011682016040523d82523d6000602084013e620004e7565b606091505b5060008151036200053157836040517f64a0ae9200000000000000000000000000000000000000000000000000000000815260040162000528919062001378565b60405180910390fd5b805181602001fd5b63150b7a0260e01b7bffffffffffffffffffffffffffffffffffffffffffffffffffffffff1916817bffffffffffffffffffffffffffffffffffffffffffffffffffffffff191614620005c557836040517f64a0ae92000000000000000000000000000000000000000000000000000000008152600401620005bc919062001378565b60405180910390fd5b505b5050505050565b600080620005e2846200080360201b60201c565b9050600073ffffffffffffffffffffffffffffffffffffffff168373ffffffffffffffffffffffffffffffffffffffff16146200062d576200062c8184866200084060201b60201c565b5b600073ffffffffffffffffffffffffffffffffffffffff168173ffffffffffffffffffffffffffffffffffffffff1614620006c757620006786000856000806200091260201b60201c565b6001600360008373ffffffffffffffffffffffffffffffffffffffff1673ffffffffffffffffffffffffffffffffffffffff168152602001908152602001600020600082825403925050819055505b600073ffffffffffffffffffffffffffffffffffffffff168573ffffffffffffffffffffffffffffffffffffffff16146200074b576001600360008773ffffffffffffffffffffffffffffffffffffffff1673ffffffffffffffffffffffffffffffffffffffff168152602001908152602001600020600082825401925050819055505b846002600086815260200190815260200160002060006101000a81548173ffffffffffffffffffffffffffffffffffffffff021916908373ffffffffffffffffffffffffffffffffffffffff160217905550838573ffffffffffffffffffffffffffffffffffffffff168273ffffffffffffffffffffffffffffffffffffffff167fddf252ad1be2c89b69c2b068fc378daa952ba7f163c4a11628f55a4df523b3ef60405160405180910390a4809150509392505050565b60006002600083815260200190815260200160002060009054906101000a900473ffffffffffffffffffffffffffffffffffffffff169050919050565b6200085383838362000aef60201b60201c565b6200090d57600073ffffffffffffffffffffffffffffffffffffffff168373ffffffffffffffffffffffffffffffffffffffff1603620008cc57806040517f7e273289000000000000000000000000000000000000000000000000000000008152600401620008c391906200144f565b60405180910390fd5b81816040517f177e802f00000000000000000000000000000000000000000000000000000000815260040162000904929190620015ac565b60405180910390fd5b505050565b80806200094c5750600073ffffffffffffffffffffffffffffffffffffffff168273ffffffffffffffffffffffffffffffffffffffff1614155b1562000a97576000620009658462000bc360201b60201c565b9050600073ffffffffffffffffffffffffffffffffffffffff168373ffffffffffffffffffffffffffffffffffffffff1614158015620009d157508273ffffffffffffffffffffffffffffffffffffffff168173ffffffffffffffffffffffffffffffffffffffff1614155b8015620009ed5750620009eb818462000c5660201b60201c565b155b1562000a3257826040517fa9fbf51f00000000000000000000000000000000000000000000000000000000815260040162000a29919062001378565b60405180910390fd5b811562000a9557838573ffffffffffffffffffffffffffffffffffffffff168273ffffffffffffffffffffffffffffffffffffffff167f8c5be1e5ebec7d5bd14f71427d1e84f3dd0314c0f7b2291e5b200ac8c7c3b92560405160405180910390a45b505b836004600085815260200190815260200160002060006101000a81548173ffffffffffffffffffffffffffffffffffffffff021916908373ffffffffffffffffffffffffffffffffffffffff16021790555050505050565b60008073ffffffffffffffffffffffffffffffffffffffff168373ffffffffffffffffffffffffffffffffffffffff161415801562000bba57508273ffffffffffffffffffffffffffffffffffffffff168473ffffffffffffffffffffffffffffffffffffffff16148062000b72575062000b71848462000c5660201b60201c565b5b8062000bb957508273ffffffffffffffffffffffffffffffffffffffff1662000ba18362000cea60201b60201c565b73ffffffffffffffffffffffffffffffffffffffff16145b5b90509392505050565b60008062000bd7836200080360201b60201c565b9050600073ffffffffffffffffffffffffffffffffffffffff168173ffffffffffffffffffffffffffffffffffffffff160362000c4d57826040517f7e27328900000000000000000000000000000000000000000000000000000000815260040162000c4491906200144f565b60405180910390fd5b80915050919050565b6000600560008473ffffffffffffffffffffffffffffffffffffffff1673ffffffffffffffffffffffffffffffffffffffff16815260200190815260200160002060008373ffffffffffffffffffffffffffffffffffffffff1673ffffffffffffffffffffffffffffffffffffffff16815260200190815260200160002060009054906101000a900460ff16905092915050565b60006004600083815260200190815260200160002060009054906101000a900473ffffffffffffffffffffffffffffffffffffffff169050919050565b6000604051905090565b600080fd5b600080fd5b600080fd5b600080fd5b6000601f19601f8301169050919050565b7f4e487b7100000000000000000000000000000000000000000000000000000000600052604160045260246000fd5b62000d908262000d45565b810181811067ffffffffffffffff8211171562000db25762000db162000d56565b5b80604052505050565b600062000dc762000d27565b905062000dd5828262000d85565b919050565b600067ffffffffffffffff82111562000df85762000df762000d56565b5b62000e038262000d45565b9050602081019050919050565b60005b8381101562000e3057808201518184015260208101905062000e13565b60008484015250505050565b600062000e5362000e4d8462000dda565b62000dbb565b90508281526020810184848401111562000e725762000e7162000d40565b5b62000e7f84828562000e10565b509392505050565b600082601f83011262000e9f5762000e9e62000d3b565b5b815162000eb184826020860162000e3c565b91505092915050565b600073ffffffffffffffffffffffffffffffffffffffff82169050919050565b600062000ee78262000eba565b9050919050565b62000ef98162000eda565b811462000f0557600080fd5b50565b60008151905062000f198162000eee565b92915050565b6000819050919050565b62000f348162000f1f565b811462000f4057600080fd5b50565b60008151905062000f548162000f29565b92915050565b600080600080600060a0868803121562000f795762000f7862000d31565b5b600086015167ffffffffffffffff81111562000f9a5762000f9962000d36565b5b62000fa88882890162000e87565b955050602086015167ffffffffffffffff81111562000fcc5762000fcb62000d36565b5b62000fda8882890162000e87565b945050604062000fed8882890162000f08565b935050606086015167ffffffffffffffff81111562001011576200101062000d36565b5b6200101f8882890162000e87565b9250506080620010328882890162000f43565b9150509295509295909350565b600081519050919050565b7f4e487b7100000000000000000000000000000000000000000000000000000000600052602260045260246000fd5b600060028204905060018216806200109257607f821691505b602082108103620010a857620010a76200104a565b5b50919050565b60008190508160005260206000209050919050565b60006020601f8301049050919050565b600082821b905092915050565b600060088302620011127fffffffffffffffffffffffffffffffffffffffffffffffffffffffffffffffff82620010d3565b6200111e8683620010d3565b95508019841693508086168417925050509392505050565b6000819050919050565b6000620011616200115b620011558462000f1f565b62001136565b62000f1f565b9050919050565b6000819050919050565b6200117d8362001140565b620011956200118c8262001168565b848454620010e0565b825550505050565b600090565b620011ac6200119d565b620011b981848462001172565b505050565b5b81811015620011e157620011d5600082620011a2565b600181019050620011bf565b5050565b601f8211156200123057620011fa81620010ae565b6200120584620010c3565b8101602085101562001215578190505b6200122d6200122485620010c3565b830182620011be565b50505b505050565b600082821c905092915050565b6000620012556000198460080262001235565b1980831691505092915050565b600062001270838362001242565b9150826002028217905092915050565b6200128b826200103f565b67ffffffffffffffff811115620012a757620012a662000d56565b5b620012b3825462001079565b620012c0828285620011e5565b600060209050601f831160018114620012f85760008415620012e3578287015190505b620012ef858262001262565b8655506200135f565b601f1984166200130886620010ae565b60005b8281101562001332578489015182556001820191506020850194506020810190506200130b565b868310156200135257848901516200134e601f89168262001242565b8355505b6001600288020188555050505b505050505050565b620013728162000eda565b82525050565b60006020820190506200138f600083018462001367565b92915050565b600082825260208201905092915050565b7f5175616e74697479206d7573742062652067726561746572207468616e207a6560008201527f726f000000000000000000000000000000000000000000000000000000000000602082015250565b60006200140460228362001395565b91506200141182620013a6565b604082019050919050565b600060208201905081810360008301526200143781620013f5565b9050919050565b620014498162000f1f565b82525050565b60006020820190506200146660008301846200143e565b92915050565b600081519050919050565b600082825260208201905092915050565b600062001495826200146c565b620014a1818562001477565b9350620014b381856020860162000e10565b620014be8162000d45565b840191505092915050565b6000608082019050620014e0600083018762001367565b620014ef602083018662001367565b620014fe60408301856200143e565b818103606083015262001512818462001488565b905095945050505050565b60007fffffffff0000000000000000000000000000000000000000000000000000000082169050919050565b62001554816200151d565b81146200156057600080fd5b50565b600081519050620015748162001549565b92915050565b60006020828403121562001593576200159262000d31565b5b6000620015a38482850162001563565b91505092915050565b6000604082019050620015c3600083018562001367565b620015d260208301846200143e565b9392505050565b61209c80620015e96000396000f3fe608060405234801561001057600080fd5b50600436106101005760003560e01c8063715018a611610097578063b88d4fde11610066578063b88d4fde14610299578063c87b56dd146102b5578063e985e9c5146102e5578063f2fde38b1461031557610100565b8063715018a6146102375780638da5cb5b1461024157806395d89b411461025f578063a22cb4651461027d57610100565b806323b872dd116100d357806323b872dd1461019f57806342842e0e146101bb5780636352211e146101d757806370a082311461020757610100565b806301ffc9a71461010557806306fdde0314610135578063081812fc14610153578063095ea7b314610183575b600080fd5b61011f600480360381019061011a91906118e6565b610331565b60405161012c919061192e565b60405180910390f35b61013d610343565b60405161014a91906119d9565b60405180910390f35b61016d60048036038101906101689190611a31565b6103d5565b60405161017a9190611a9f565b60405180910390f35b61019d60048036038101906101989190611ae6565b6103f1565b005b6101b960048036038101906101b49190611b26565b610407565b005b6101d560048036038101906101d09190611b26565b610509565b005b6101f160048036038101906101ec9190611a31565b610529565b6040516101fe9190611a9f565b60405180910390f35b610221600480360381019061021c9190611b79565b61053b565b60405161022e9190611bb5565b60405180910390f35b61023f6105f5565b005b610249610609565b6040516102569190611a9f565b60405180910390f35b610267610633565b60405161027491906119d9565b60405180910390f35b61029760048036038101906102929190611bfc565b6106c5565b005b6102b360048036038101906102ae9190611d71565b6106db565b005b6102cf60048036038101906102ca9190611a31565b610700565b6040516102dc91906119d9565b60405180910390f35b6102ff60048036038101906102fa9190611df4565b610712565b60405161030c919061192e565b60405180910390f35b61032f600480360381019061032a9190611b79565b6107a6565b005b600061033c8261082c565b9050919050565b60606000805461035290611e63565b80601f016020809104026020016040519081016040528092919081815260200182805461037e90611e63565b80156103cb5780601f106103a0576101008083540402835291602001916103cb565b820191906000526020600020905b8154815290600101906020018083116103ae57829003601f168201915b5050505050905090565b60006103e08261088d565b506103ea82610915565b9050919050565b61040382826103fe610952565b61095a565b5050565b600073ffffffffffffffffffffffffffffffffffffffff168273ffffffffffffffffffffffffffffffffffffffff16036104795760006040517f64a0ae920000000000000000000000000000000000000000000000000000000081526004016104709190611a9f565b60405180910390fd5b600061048d8383610488610952565b61096c565b90508373ffffffffffffffffffffffffffffffffffffffff168173ffffffffffffffffffffffffffffffffffffffff1614610503578382826040517f64283d7b0000000000000000000000000000000000000000000000000000000081526004016104fa93929190611e94565b60405180910390fd5b50505050565b610524838383604051806020016040528060008152506106db565b505050565b60006105348261088d565b9050919050565b60008073ffffffffffffffffffffffffffffffffffffffff168273ffffffffffffffffffffffffffffffffffffffff16036105ae5760006040517f89c62b640000000000000000000000000000000000000000000000000000000081526004016105a59190611a9f565b60405180910390fd5b600360008373ffffffffffffffffffffffffffffffffffffffff1673ffffffffffffffffffffffffffffffffffffffff168152602001908152602001600020549050919050565b6105fd610b86565b6106076000610c0d565b565b6000600760009054906101000a900473ffffffffffffffffffffffffffffffffffffffff16905090565b60606001805461064290611e63565b80601f016020809104026020016040519081016040528092919081815260200182805461066e90611e63565b80156106bb5780601f10610690576101008083540402835291602001916106bb565b820191906000526020600020905b81548152906001019060200180831161069e57829003601f168201915b5050505050905090565b6106d76106d0610952565b8383610cd3565b5050565b6106e6848484610407565b6106fa6106f1610952565b85858585610e42565b50505050565b606061070b82610ff3565b9050919050565b6000600560008473ffffffffffffffffffffffffffffffffffffffff1673ffffffffffffffffffffffffffffffffffffffff16815260200190815260200160002060008373ffffffffffffffffffffffffffffffffffffffff1673ffffffffffffffffffffffffffffffffffffffff16815260200190815260200160002060009054906101000a900460ff16905092915050565b6107ae610b86565b600073ffffffffffffffffffffffffffffffffffffffff168173ffffffffffffffffffffffffffffffffffffffff16036108205760006040517f1e4fbdf70000000000000000000000000000000000000000000000000000000081526004016108179190611a9f565b60405180910390fd5b61082981610c0d565b50565b6000634906490660e01b7bffffffffffffffffffffffffffffffffffffffffffffffffffffffff1916827bffffffffffffffffffffffffffffffffffffffffffffffffffffffff19161480610886575061088582611106565b5b9050919050565b600080610899836111e8565b9050600073ffffffffffffffffffffffffffffffffffffffff168173ffffffffffffffffffffffffffffffffffffffff160361090c57826040517f7e2732890000000000000000000000000000000000000000000000000000000081526004016109039190611bb5565b60405180910390fd5b80915050919050565b60006004600083815260200190815260200160002060009054906101000a900473ffffffffffffffffffffffffffffffffffffffff169050919050565b600033905090565b6109678383836001611225565b505050565b600080610978846111e8565b9050600073ffffffffffffffffffffffffffffffffffffffff168373ffffffffffffffffffffffffffffffffffffffff16146109ba576109b98184866113ea565b5b600073ffffffffffffffffffffffffffffffffffffffff168173ffffffffffffffffffffffffffffffffffffffff1614610a4b576109fc600085600080611225565b6001600360008373ffffffffffffffffffffffffffffffffffffffff1673ffffffffffffffffffffffffffffffffffffffff168152602001908152602001600020600082825403925050819055505b600073ffffffffffffffffffffffffffffffffffffffff168573ffffffffffffffffffffffffffffffffffffffff1614610ace576001600360008773ffffffffffffffffffffffffffffffffffffffff1673ffffffffffffffffffffffffffffffffffffffff168152602001908152602001600020600082825401925050819055505b846002600086815260200190815260200160002060006101000a81548173ffffffffffffffffffffffffffffffffffffffff021916908373ffffffffffffffffffffffffffffffffffffffff160217905550838573ffffffffffffffffffffffffffffffffffffffff168273ffffffffffffffffffffffffffffffffffffffff167fddf252ad1be2c89b69c2b068fc378daa952ba7f163c4a11628f55a4df523b3ef60405160405180910390a4809150509392505050565b610b8e610952565b73ffffffffffffffffffffffffffffffffffffffff16610bac610609565b73ffffffffffffffffffffffffffffffffffffffff1614610c0b57610bcf610952565b6040517f118cdaa7000000000000000000000000000000000000000000000000000000008152600401610c029190611a9f565b60405180910390fd5b565b6000600760009054906101000a900473ffffffffffffffffffffffffffffffffffffffff16905081600760006101000a81548173ffffffffffffffffffffffffffffffffffffffff021916908373ffffffffffffffffffffffffffffffffffffffff1602179055508173ffffffffffffffffffffffffffffffffffffffff168173ffffffffffffffffffffffffffffffffffffffff167f8be0079c531659141344cd1fd0a4f28419497f9722a3daafe3b4186f6b6457e060405160405180910390a35050565b600073ffffffffffffffffffffffffffffffffffffffff168273ffffffffffffffffffffffffffffffffffffffff1603610d4457816040517f5b08ba18000000000000000000000000000000000000000000000000000000008152600401610d3b9190611a9f565b60405180910390fd5b80600560008573ffffffffffffffffffffffffffffffffffffffff1673ffffffffffffffffffffffffffffffffffffffff16815260200190815260200160002060008473ffffffffffffffffffffffffffffffffffffffff1673ffffffffffffffffffffffffffffffffffffffff16815260200190815260200160002060006101000a81548160ff0219169083151502179055508173ffffffffffffffffffffffffffffffffffffffff168373ffffffffffffffffffffffffffffffffffffffff167f17307eab39ab6107e8899845ad3d59bd9653f200f220920489ca2b5937696c3183604051610e35919061192e565b60405180910390a3505050565b60008373ffffffffffffffffffffffffffffffffffffffff163b1115610fec578273ffffffffffffffffffffffffffffffffffffffff1663150b7a02868685856040518563ffffffff1660e01b8152600401610ea19493929190611f20565b6020604051808303816000875af1925050508015610edd57506040513d601f19601f82011682018060405250810190610eda9190611f81565b60015b610f61573d8060008114610f0d576040519150601f19603f3d011682016040523d82523d6000602084013e610f12565b606091505b506000815103610f5957836040517f64a0ae92000000000000000000000000000000000000000000000000000000008152600401610f509190611a9f565b60405180910390fd5b805181602001fd5b63150b7a0260e01b7bffffffffffffffffffffffffffffffffffffffffffffffffffffffff1916817bffffffffffffffffffffffffffffffffffffffffffffffffffffffff191614610fea57836040517f64a0ae92000000000000000000000000000000000000000000000000000000008152600401610fe19190611a9f565b60405180910390fd5b505b5050505050565b6060610ffe8261088d565b50600060066000848152602001908152602001600020805461101f90611e63565b80601f016020809104026020016040519081016040528092919081815260200182805461104b90611e63565b80156110985780601f1061106d57610100808354040283529160200191611098565b820191906000526020600020905b81548152906001019060200180831161107b57829003601f168201915b5050505050905060006110a96114ae565b905060008151036110be578192505050611101565b6000825111156110f35780826040516020016110db929190611fea565b60405160208183030381529060405292505050611101565b6110fc846114c5565b925050505b919050565b60007f80ac58cd000000000000000000000000000000000000000000000000000000007bffffffffffffffffffffffffffffffffffffffffffffffffffffffff1916827bffffffffffffffffffffffffffffffffffffffffffffffffffffffff191614806111d157507f5b5e139f000000000000000000000000000000000000000000000000000000007bffffffffffffffffffffffffffffffffffffffffffffffffffffffff1916827bffffffffffffffffffffffffffffffffffffffffffffffffffffffff1916145b806111e157506111e08261152e565b5b9050919050565b60006002600083815260200190815260200160002060009054906101000a900473ffffffffffffffffffffffffffffffffffffffff169050919050565b808061125e5750600073ffffffffffffffffffffffffffffffffffffffff168273ffffffffffffffffffffffffffffffffffffffff1614155b1561139257600061126e8461088d565b9050600073ffffffffffffffffffffffffffffffffffffffff168373ffffffffffffffffffffffffffffffffffffffff16141580156112d957508273ffffffffffffffffffffffffffffffffffffffff168173ffffffffffffffffffffffffffffffffffffffff1614155b80156112ec57506112ea8184610712565b155b1561132e57826040517fa9fbf51f0000000000000000000000000000000000000000000000000000000081526004016113259190611a9f565b60405180910390fd5b811561139057838573ffffffffffffffffffffffffffffffffffffffff168273ffffffffffffffffffffffffffffffffffffffff167f8c5be1e5ebec7d5bd14f71427d1e84f3dd0314c0f7b2291e5b200ac8c7c3b92560405160405180910390a45b505b836004600085815260200190815260200160002060006101000a81548173ffffffffffffffffffffffffffffffffffffffff021916908373ffffffffffffffffffffffffffffffffffffffff16021790555050505050565b6113f5838383611598565b6114a957600073ffffffffffffffffffffffffffffffffffffffff168373ffffffffffffffffffffffffffffffffffffffff160361146a57806040517f7e2732890000000000000000000000000000000000000000000000000000000081526004016114619190611bb5565b60405180910390fd5b81816040517f177e802f0000000000000000000000000000000000000000000000000000000081526004016114a092919061200e565b60405180910390fd5b505050565b606060405180602001604052806000815250905090565b60606114d08261088d565b5060006114db6114ae565b905060008151116114fb5760405180602001604052806000815250611526565b8061150584611659565b604051602001611516929190611fea565b6040516020818303038152906040525b915050919050565b60007f01ffc9a7000000000000000000000000000000000000000000000000000000007bffffffffffffffffffffffffffffffffffffffffffffffffffffffff1916827bffffffffffffffffffffffffffffffffffffffffffffffffffffffff1916149050919050565b60008073ffffffffffffffffffffffffffffffffffffffff168373ffffffffffffffffffffffffffffffffffffffff161415801561165057508273ffffffffffffffffffffffffffffffffffffffff168473ffffffffffffffffffffffffffffffffffffffff16148061161157506116108484610712565b5b8061164f57508273ffffffffffffffffffffffffffffffffffffffff1661163783610915565b73ffffffffffffffffffffffffffffffffffffffff16145b5b90509392505050565b60606000600161166884611727565b01905060008167ffffffffffffffff81111561168757611686611c46565b5b6040519080825280601f01601f1916602001820160405280156116b95781602001600182028036833780820191505090505b509050600082602001820190505b60011561171c578080600190039150507f3031323334353637383961626364656600000000000000000000000000000000600a86061a8153600a85816117105761170f612037565b5b049450600085036116c7575b819350505050919050565b600080600090507a184f03e93ff9f4daa797ed6e38ed64bf6a1f0100000000000000008310611785577a184f03e93ff9f4daa797ed6e38ed64bf6a1f010000000000000000838161177b5761177a612037565b5b0492506040810190505b6d04ee2d6d415b85acef810000000083106117c2576d04ee2d6d415b85acef810000000083816117b8576117b7612037565b5b0492506020810190505b662386f26fc1000083106117f157662386f26fc1000083816117e7576117e6612037565b5b0492506010810190505b6305f5e100831061181a576305f5e10083816118105761180f612037565b5b0492506008810190505b612710831061183f57612710838161183557611834612037565b5b0492506004810190505b60648310611862576064838161185857611857612037565b5b0492506002810190505b600a8310611871576001810190505b80915050919050565b6000604051905090565b600080fd5b600080fd5b60007fffffffff0000000000000000000000000000000000000000000000000000000082169050919050565b6118c38161188e565b81146118ce57600080fd5b50565b6000813590506118e0816118ba565b92915050565b6000602082840312156118fc576118fb611884565b5b600061190a848285016118d1565b91505092915050565b60008115159050919050565b61192881611913565b82525050565b6000602082019050611943600083018461191f565b92915050565b600081519050919050565b600082825260208201905092915050565b60005b83811015611983578082015181840152602081019050611968565b60008484015250505050565b6000601f19601f8301169050919050565b60006119ab82611949565b6119b58185611954565b93506119c5818560208601611965565b6119ce8161198f565b840191505092915050565b600060208201905081810360008301526119f381846119a0565b905092915050565b6000819050919050565b611a0e816119fb565b8114611a1957600080fd5b50565b600081359050611a2b81611a05565b92915050565b600060208284031215611a4757611a46611884565b5b6000611a5584828501611a1c565b91505092915050565b600073ffffffffffffffffffffffffffffffffffffffff82169050919050565b6000611a8982611a5e565b9050919050565b611a9981611a7e565b82525050565b6000602082019050611ab46000830184611a90565b92915050565b611ac381611a7e565b8114611ace57600080fd5b50565b600081359050611ae081611aba565b92915050565b60008060408385031215611afd57611afc611884565b5b6000611b0b85828601611ad1565b9250506020611b1c85828601611a1c565b9150509250929050565b600080600060608486031215611b3f57611b3e611884565b5b6000611b4d86828701611ad1565b9350506020611b5e86828701611ad1565b9250506040611b6f86828701611a1c565b9150509250925092565b600060208284031215611b8f57611b8e611884565b5b6000611b9d84828501611ad1565b91505092915050565b611baf816119fb565b82525050565b6000602082019050611bca6000830184611ba6565b92915050565b611bd981611913565b8114611be457600080fd5b50565b600081359050611bf681611bd0565b92915050565b60008060408385031215611c1357611c12611884565b5b6000611c2185828601611ad1565b9250506020611c3285828601611be7565b9150509250929050565b600080fd5b600080fd5b7f4e487b7100000000000000000000000000000000000000000000000000000000600052604160045260246000fd5b611c7e8261198f565b810181811067ffffffffffffffff82111715611c9d57611c9c611c46565b5b80604052505050565b6000611cb061187a565b9050611cbc8282611c75565b919050565b600067ffffffffffffffff821115611cdc57611cdb611c46565b5b611ce58261198f565b9050602081019050919050565b82818337600083830152505050565b6000611d14611d0f84611cc1565b611ca6565b905082815260208101848484011115611d3057611d2f611c41565b5b611d3b848285611cf2565b509392505050565b600082601f830112611d5857611d57611c3c565b5b8135611d68848260208601611d01565b91505092915050565b60008060008060808587031215611d8b57611d8a611884565b5b6000611d9987828801611ad1565b9450506020611daa87828801611ad1565b9350506040611dbb87828801611a1c565b925050606085013567ffffffffffffffff811115611ddc57611ddb611889565b5b611de887828801611d43565b91505092959194509250565b60008060408385031215611e0b57611e0a611884565b5b6000611e1985828601611ad1565b9250506020611e2a85828601611ad1565b9150509250929050565b7f4e487b7100000000000000000000000000000000000000000000000000000000600052602260045260246000fd5b60006002820490506001821680611e7b57607f821691505b602082108103611e8e57611e8d611e34565b5b50919050565b6000606082019050611ea96000830186611a90565b611eb66020830185611ba6565b611ec36040830184611a90565b949350505050565b600081519050919050565b600082825260208201905092915050565b6000611ef282611ecb565b611efc8185611ed6565b9350611f0c818560208601611965565b611f158161198f565b840191505092915050565b6000608082019050611f356000830187611a90565b611f426020830186611a90565b611f4f6040830185611ba6565b8181036060830152611f618184611ee7565b905095945050505050565b600081519050611f7b816118ba565b92915050565b600060208284031215611f9757611f96611884565b5b6000611fa584828501611f6c565b91505092915050565b600081905092915050565b6000611fc482611949565b611fce8185611fae565b9350611fde818560208601611965565b80840191505092915050565b6000611ff68285611fb9565b91506120028284611fb9565b91508190509392505050565b60006040820190506120236000830185611a90565b6120306020830184611ba6565b9392505050565b7f4e487b7100000000000000000000000000000000000000000000000000000000600052601260045260246000fdfea2646970667358221220d9180ba68c02c59c1d581f8e2d221e894a1d484499fce22f04d409847947cdfb64736f6c63430008180033",
  "linkReferences": {},
  "deployedLinkReferences": {}
}