{
  "_format": "hh-sol-artifact-1",
  "contractName": "Marketplace",
  "sourceName": "contracts/Marketplace.sol",
  "abi": [
    {
      "inputs": [
        {
          "internalType": "uint256",
          "name": "_platformFeePercent",
          "type": "uint256"
        },
        {
          "internalType": "address payable",
          "name": "_feeRecipient",
          "type": "address"
        }
      ],
      "stateMutability": "nonpayable",
      "type": "constructor"
    },
    {
      "inputs": [],
      "name": "ReentrancyGuardReentrantCall",
      "type": "error"
    },
    {
      "anonymous": false,
      "inputs": [
        {
          "indexed": false,
          "internalType": "address",
          "name": "newRecipient",
          "type": "address"
        }
      ],
      "name": "FeeRecipientUpdated",
      "type": "event"
    },
    {
      "anonymous": false,
      "inputs": [
        {
          "indexed": true,
          "internalType": "address",
          "name": "nftAddress",
          "type": "address"
        },
        {
          "indexed": true,
          "internalType": "uint256",
          "name": "tokenId",
          "type": "uint256"
        },
        {
          "indexed": true,
          "internalType": "address",
          "name": "seller",
          "type": "address"
        },
        {
          "indexed": false,
          "internalType": "uint256",
          "name": "price",
          "type": "uint256"
        }
      ],
      "name": "ItemListed",
      "type": "event"
    },
    {
      "anonymous": false,
      "inputs": [
        {
          "indexed": true,
          "internalType": "address",
          "name": "nftAddress",
          "type": "address"
        },
        {
          "indexed": true,
          "internalType": "uint256",
          "name": "tokenId",
          "type": "uint256"
        },
        {
          "indexed": false,
          "internalType": "address",
          "name": "seller",
          "type": "address"
        },
        {
          "indexed": true,
          "internalType": "address",
          "name": "buyer",
          "type": "address"
        },
        {
          "indexed": false,
          "internalType": "uint256",
          "name": "price",
          "type": "uint256"
        }
      ],
      "name": "ItemSold",
      "type": "event"
    },
    {
      "anonymous": false,
      "inputs": [
        {
          "indexed": true,
          "internalType": "address",
          "name": "nftAddress",
          "type": "address"
        },
        {
          "indexed": true,
          "internalType": "uint256",
          "name": "tokenId",
          "type": "uint256"
        },
        {
          "indexed": false,
          "internalType": "address",
          "name": "seller",
          "type": "address"
        }
      ],
      "name": "ListingCancelled",
      "type": "event"
    },
    {
      "anonymous": false,
      "inputs": [
        {
          "indexed": false,
          "internalType": "uint256",
          "name": "newFeePercent",
          "type": "uint256"
        }
      ],
      "name": "PlatformFeeUpdated",
      "type": "event"
    },
    {
      "inputs": [
        {
          "internalType": "address",
          "name": "nftAddress",
          "type": "address"
        },
        {
          "internalType": "uint256",
          "name": "tokenId",
          "type": "uint256"
        }
      ],
      "name": "buyItem",
      "outputs": [],
      "stateMutability": "payable",
      "type": "function"
    },
    {
      "inputs": [
        {
          "internalType": "address",
          "name": "nftAddress",
          "type": "address"
        },
        {
          "internalType": "uint256",
          "name": "tokenId",
          "type": "uint256"
        }
      ],
      "name": "cancelListing",
      "outputs": [],
      "stateMutability": "nonpayable",
      "type": "function"
    },
    {
      "inputs": [],
      "name": "feeRecipient",
      "outputs": [
        {
          "internalType": "address payable",
          "name": "",
          "type": "address"
        }
      ],
      "stateMutability": "view",
      "type": "function"
    },
    {
      "inputs": [
        {
          "internalType": "address",
          "name": "nftAddress",
          "type": "address"
        },
        {
          "internalType": "uint256",
          "name": "tokenId",
          "type": "uint256"
        },
        {
          "internalType": "uint256",
          "name": "price",
          "type": "uint256"
        }
      ],
      "name": "listItem",
      "outputs": [],
      "stateMutability": "nonpayable",
      "type": "function"
    },
    {
      "inputs": [
        {
          "internalType": "address",
          "name": "",
          "type": "address"
        },
        {
          "internalType": "uint256",
          "name": "",
          "type": "uint256"
        }
      ],
      "name": "listings",
      "outputs": [
        {
          "internalType": "address",
          "name": "seller",
          "type": "address"
        },
        {
          "internalType": "uint256",
          "name": "price",
          "type": "uint256"
        }
      ],
      "stateMutability": "view",
      "type": "function"
    },
    {
      "inputs": [],
      "name": "platformFeePercent",
      "outputs": [
        {
          "internalType": "uint256",
          "name": "",
          "type": "uint256"
        }
      ],
      "stateMutability": "view",
      "type": "function"
    },
    {
      "inputs": [
        {
          "internalType": "address payable",
          "name": "_newRecipient",
          "type": "address"
        }
      ],
      "name": "setFeeRecipient",
      "outputs": [],
      "stateMutability": "nonpayable",
      "type": "function"
    },
    {
      "inputs": [
        {
          "internalType": "uint256",
          "name": "_newFeePercent",
          "type": "uint256"
        }
      ],
      "name": "setPlatformFee",
      "outputs": [],
      "stateMutability": "nonpayable",
      "type": "function"
    },
    {
      "inputs": [
        {
          "internalType": "address",
          "name": "nftAddress",
          "type": "address"
        },
        {
          "internalType": "uint256",
          "name": "tokenId",
          "type": "uint256"
        },
        {
          "internalType": "uint256",
          "name": "newPrice",
          "type": "uint256"
        }
      ],
      "name": "updateListingPrice",
      "outputs": [],
      "stateMutability": "nonpayable",
      "type": "function"
    }
  ],
  "bytecode": "0x60806040523480156200001157600080fd5b5060405162001ed138038062001ed1833981810160405281019062000037919062000134565b60016000819055508160028190555080600360006101000a81548173ffffffffffffffffffffffffffffffffffffffff021916908373ffffffffffffffffffffffffffffffffffffffff16021790555050506200017b565b600080fd5b6000819050919050565b620000a98162000094565b8114620000b557600080fd5b50565b600081519050620000c9816200009e565b92915050565b600073ffffffffffffffffffffffffffffffffffffffff82169050919050565b6000620000fc82620000cf565b9050919050565b6200010e81620000ef565b81146200011a57600080fd5b50565b6000815190506200012e8162000103565b92915050565b600080604083850312156200014e576200014d6200008f565b5b60006200015e85828601620000b8565b925050602062000171858286016200011d565b9150509250929050565b611d46806200018b6000396000f3fe6080604052600436106100855760003560e01c80638c639a85116100595780638c639a85146101455780639f37092a14610170578063b2ddee061461018c578063e74b981b146101b5578063f7232f67146101de57610085565b806207df301461008a57806312e8e2c3146100c857806346904840146100f157806389bfd38f1461011c575b600080fd5b34801561009657600080fd5b506100b160048036038101906100ac91906111d5565b610207565b6040516100bf929190611233565b60405180910390f35b3480156100d457600080fd5b506100ef60048036038101906100ea919061125c565b610258565b005b3480156100fd57600080fd5b50610106610329565b60405161011391906112aa565b60405180910390f35b34801561012857600080fd5b50610143600480360381019061013e91906112c5565b61034f565b005b34801561015157600080fd5b5061015a610733565b6040516101679190611318565b60405180910390f35b61018a600480360381019061018591906111d5565b610739565b005b34801561019857600080fd5b506101b360048036038101906101ae91906111d5565b610c82565b005b3480156101c157600080fd5b506101dc60048036038101906101d7919061135f565b610e99565b005b3480156101ea57600080fd5b50610205600480360381019061020091906112c5565b610fa4565b005b6001602052816000526040600020602052806000526040600020600091509150508060000160009054906101000a900473ffffffffffffffffffffffffffffffffffffffff16908060010154905082565b600360009054906101000a900473ffffffffffffffffffffffffffffffffffffffff1673ffffffffffffffffffffffffffffffffffffffff163373ffffffffffffffffffffffffffffffffffffffff16146102e8576040517f08c379a00000000000000000000000000000000000000000000000000000000081526004016102df9061140f565b60405180910390fd5b806002819055507f45610d581145924dd7090a5017e5f2b1d6f42213bb2e95707ff86846bbfcb1ca8160405161031e9190611318565b60405180910390a150565b600360009054906101000a900473ffffffffffffffffffffffffffffffffffffffff1681565b6103576110ec565b6000811161039a576040517f08c379a0000000000000000000000000000000000000000000000000000000008152600401610391906114a1565b60405180910390fd5b60008390503373ffffffffffffffffffffffffffffffffffffffff168173ffffffffffffffffffffffffffffffffffffffff16636352211e856040518263ffffffff1660e01b81526004016103ef9190611318565b602060405180830381865afa15801561040c573d6000803e3d6000fd5b505050506040513d601f19601f8201168201806040525081019061043091906114d6565b73ffffffffffffffffffffffffffffffffffffffff1614610486576040517f08c379a000000000000000000000000000000000000000000000000000000000815260040161047d90611575565b60405180910390fd5b3073ffffffffffffffffffffffffffffffffffffffff168173ffffffffffffffffffffffffffffffffffffffff1663081812fc856040518263ffffffff1660e01b81526004016104d69190611318565b602060405180830381865afa1580156104f3573d6000803e3d6000fd5b505050506040513d601f19601f8201168201806040525081019061051791906114d6565b73ffffffffffffffffffffffffffffffffffffffff1614806105b157508073ffffffffffffffffffffffffffffffffffffffff1663e985e9c533306040518363ffffffff1660e01b815260040161056f929190611595565b602060405180830381865afa15801561058c573d6000803e3d6000fd5b505050506040513d601f19601f820116820180604052508101906105b091906115f6565b5b6105f0576040517f08c379a00000000000000000000000000000000000000000000000000000000081526004016105e790611695565b60405180910390fd5b60405180604001604052803373ffffffffffffffffffffffffffffffffffffffff16815260200183815250600160008673ffffffffffffffffffffffffffffffffffffffff1673ffffffffffffffffffffffffffffffffffffffff168152602001908152602001600020600085815260200190815260200160002060008201518160000160006101000a81548173ffffffffffffffffffffffffffffffffffffffff021916908373ffffffffffffffffffffffffffffffffffffffff160217905550602082015181600101559050503373ffffffffffffffffffffffffffffffffffffffff16838573ffffffffffffffffffffffffffffffffffffffff167fb29a3c5d9c9eb8230bd277c54293a0a15e98cd5592a3e0d470fe9ce59fed54f18560405161071d9190611318565b60405180910390a45061072e611132565b505050565b60025481565b6107416110ec565b6000600160008473ffffffffffffffffffffffffffffffffffffffff1673ffffffffffffffffffffffffffffffffffffffff16815260200190815260200160002060008381526020019081526020016000206040518060400160405290816000820160009054906101000a900473ffffffffffffffffffffffffffffffffffffffff1673ffffffffffffffffffffffffffffffffffffffff1673ffffffffffffffffffffffffffffffffffffffff16815260200160018201548152505090506000816020015111610847576040517f08c379a000000000000000000000000000000000000000000000000000000000815260040161083e90611727565b60405180910390fd5b60008160200151905080341015610893576040517f08c379a000000000000000000000000000000000000000000000000000000000815260040161088a906117b9565b60405180910390fd5b6000612710600254836108a69190611808565b6108b09190611879565b9050600081836108c091906118aa565b9050600160008773ffffffffffffffffffffffffffffffffffffffff1673ffffffffffffffffffffffffffffffffffffffff1681526020019081526020016000206000868152602001908152602001600020600080820160006101000a81549073ffffffffffffffffffffffffffffffffffffffff0219169055600182016000905550506000821115610a1d576000600360009054906101000a900473ffffffffffffffffffffffffffffffffffffffff1673ffffffffffffffffffffffffffffffffffffffff16836040516109959061190f565b60006040518083038185875af1925050503d80600081146109d2576040519150601f19603f3d011682016040523d82523d6000602084013e6109d7565b606091505b5050905080610a1b576040517f08c379a0000000000000000000000000000000000000000000000000000000008152600401610a1290611970565b60405180910390fd5b505b6000846000015173ffffffffffffffffffffffffffffffffffffffff1682604051610a479061190f565b60006040518083038185875af1925050503d8060008114610a84576040519150601f19603f3d011682016040523d82523d6000602084013e610a89565b606091505b5050905080610acd576040517f08c379a0000000000000000000000000000000000000000000000000000000008152600401610ac490611a02565b60405180910390fd5b8673ffffffffffffffffffffffffffffffffffffffff166342842e0e866000015133896040518463ffffffff1660e01b8152600401610b0e93929190611a22565b600060405180830381600087803b158015610b2857600080fd5b505af1158015610b3c573d6000803e3d6000fd5b5050505083341115610c015760003373ffffffffffffffffffffffffffffffffffffffff168534610b6d91906118aa565b604051610b799061190f565b60006040518083038185875af1925050503d8060008114610bb6576040519150601f19603f3d011682016040523d82523d6000602084013e610bbb565b606091505b5050905080610bff576040517f08c379a0000000000000000000000000000000000000000000000000000000008152600401610bf690611aa5565b60405180910390fd5b505b3373ffffffffffffffffffffffffffffffffffffffff16868873ffffffffffffffffffffffffffffffffffffffff167fbcf10c39f62b09d50efa1e275c1297b15ef10efd0e4e9b54883d782eef4ef56488600001518960200151604051610c69929190611233565b60405180910390a45050505050610c7e611132565b5050565b610c8a6110ec565b6000600160008473ffffffffffffffffffffffffffffffffffffffff1673ffffffffffffffffffffffffffffffffffffffff16815260200190815260200160002060008381526020019081526020016000206040518060400160405290816000820160009054906101000a900473ffffffffffffffffffffffffffffffffffffffff1673ffffffffffffffffffffffffffffffffffffffff1673ffffffffffffffffffffffffffffffffffffffff16815260200160018201548152505090503373ffffffffffffffffffffffffffffffffffffffff16816000015173ffffffffffffffffffffffffffffffffffffffff1614610dbb576040517f08c379a0000000000000000000000000000000000000000000000000000000008152600401610db290611b37565b60405180910390fd5b600160008473ffffffffffffffffffffffffffffffffffffffff1673ffffffffffffffffffffffffffffffffffffffff1681526020019081526020016000206000838152602001908152602001600020600080820160006101000a81549073ffffffffffffffffffffffffffffffffffffffff021916905560018201600090555050818373ffffffffffffffffffffffffffffffffffffffff167f8526cb6d400b8a551983c99e6d6fb1775b7a0deeb5d1e39d3ee65bc59e5eac2733604051610e849190611b57565b60405180910390a350610e95611132565b5050565b600360009054906101000a900473ffffffffffffffffffffffffffffffffffffffff1673ffffffffffffffffffffffffffffffffffffffff163373ffffffffffffffffffffffffffffffffffffffff1614610f29576040517f08c379a0000000000000000000000000000000000000000000000000000000008152600401610f2090611be4565b60405180910390fd5b80600360006101000a81548173ffffffffffffffffffffffffffffffffffffffff021916908373ffffffffffffffffffffffffffffffffffffffff1602179055507f7a7b5a0a132f9e0581eb8527f66eae9ee89c2a3e79d4ac7e41a1f1f4d48a7fc281604051610f999190611c63565b60405180910390a150565b610fac6110ec565b6000600160008573ffffffffffffffffffffffffffffffffffffffff1673ffffffffffffffffffffffffffffffffffffffff168152602001908152602001600020600084815260200190815260200160002090503373ffffffffffffffffffffffffffffffffffffffff168160000160009054906101000a900473ffffffffffffffffffffffffffffffffffffffff1673ffffffffffffffffffffffffffffffffffffffff1614611092576040517f08c379a000000000000000000000000000000000000000000000000000000000815260040161108990611b37565b60405180910390fd5b600082116110d5576040517f08c379a00000000000000000000000000000000000000000000000000000000081526004016110cc90611cf0565b60405180910390fd5b818160010181905550506110e7611132565b505050565b600260005403611128576040517f3ee5aeb500000000000000000000000000000000000000000000000000000000815260040160405180910390fd5b6002600081905550565b6001600081905550565b600080fd5b600073ffffffffffffffffffffffffffffffffffffffff82169050919050565b600061116c82611141565b9050919050565b61117c81611161565b811461118757600080fd5b50565b60008135905061119981611173565b92915050565b6000819050919050565b6111b28161119f565b81146111bd57600080fd5b50565b6000813590506111cf816111a9565b92915050565b600080604083850312156111ec576111eb61113c565b5b60006111fa8582860161118a565b925050602061120b858286016111c0565b9150509250929050565b61121e81611161565b82525050565b61122d8161119f565b82525050565b60006040820190506112486000830185611215565b6112556020830184611224565b9392505050565b6000602082840312156112725761127161113c565b5b6000611280848285016111c0565b91505092915050565b600061129482611141565b9050919050565b6112a481611289565b82525050565b60006020820190506112bf600083018461129b565b92915050565b6000806000606084860312156112de576112dd61113c565b5b60006112ec8682870161118a565b93505060206112fd868287016111c0565b925050604061130e868287016111c0565b9150509250925092565b600060208201905061132d6000830184611224565b92915050565b61133c81611289565b811461134757600080fd5b50565b60008135905061135981611333565b92915050565b6000602082840312156113755761137461113c565b5b60006113838482850161134a565b91505092915050565b600082825260208201905092915050565b7f4f6e6c792066656520726563697069656e742063616e206368616e676520666560008201527f6500000000000000000000000000000000000000000000000000000000000000602082015250565b60006113f960218361138c565b91506114048261139d565b604082019050919050565b60006020820190508181036000830152611428816113ec565b9050919050565b7f4d61726b6574706c6163653a207072696365206d75737420626520677265617460008201527f6572207468616e20300000000000000000000000000000000000000000000000602082015250565b600061148b60298361138c565b91506114968261142f565b604082019050919050565b600060208201905081810360008301526114ba8161147e565b9050919050565b6000815190506114d081611173565b92915050565b6000602082840312156114ec576114eb61113c565b5b60006114fa848285016114c1565b91505092915050565b7f4d61726b6574706c6163653a20796f75206d757374206f776e20746865204e4660008201527f5400000000000000000000000000000000000000000000000000000000000000602082015250565b600061155f60218361138c565b915061156a82611503565b604082019050919050565b6000602082019050818103600083015261158e81611552565b9050919050565b60006040820190506115aa6000830185611215565b6115b76020830184611215565b9392505050565b60008115159050919050565b6115d3816115be565b81146115de57600080fd5b50565b6000815190506115f0816115ca565b92915050565b60006020828403121561160c5761160b61113c565b5b600061161a848285016115e1565b91505092915050565b7f4d61726b6574706c6163653a20636f6e7472616374206e6f7420617070726f7660008201527f656420746f206d616e6167652074686973204e46540000000000000000000000602082015250565b600061167f60358361138c565b915061168a82611623565b604082019050919050565b600060208201905081810360008301526116ae81611672565b9050919050565b7f4d61726b6574706c6163653a206974656d206e6f74206c697374656420666f7260008201527f2073616c65000000000000000000000000000000000000000000000000000000602082015250565b600061171160258361138c565b915061171c826116b5565b604082019050919050565b6000602082019050818103600083015261174081611704565b9050919050565b7f4d61726b6574706c6163653a206e6f7420656e6f7567682066756e647320736560008201527f6e74000000000000000000000000000000000000000000000000000000000000602082015250565b60006117a360228361138c565b91506117ae82611747565b604082019050919050565b600060208201905081810360008301526117d281611796565b9050919050565b7f4e487b7100000000000000000000000000000000000000000000000000000000600052601160045260246000fd5b60006118138261119f565b915061181e8361119f565b925082820261182c8161119f565b91508282048414831517611843576118426117d9565b5b5092915050565b7f4e487b7100000000000000000000000000000000000000000000000000000000600052601260045260246000fd5b60006118848261119f565b915061188f8361119f565b92508261189f5761189e61184a565b5b828204905092915050565b60006118b58261119f565b91506118c08361119f565b92508282039050818111156118d8576118d76117d9565b5b92915050565b600081905092915050565b50565b60006118f96000836118de565b9150611904826118e9565b600082019050919050565b600061191a826118ec565b9150819050919050565b7f4d61726b6574706c6163653a20666565207472616e73666572206661696c6564600082015250565b600061195a60208361138c565b915061196582611924565b602082019050919050565b600060208201905081810360008301526119898161194d565b9050919050565b7f4d61726b6574706c6163653a2073656c6c6572207061796d656e74206661696c60008201527f6564000000000000000000000000000000000000000000000000000000000000602082015250565b60006119ec60228361138c565b91506119f782611990565b604082019050919050565b60006020820190508181036000830152611a1b816119df565b9050919050565b6000606082019050611a376000830186611215565b611a446020830185611215565b611a516040830184611224565b949350505050565b7f4d61726b6574706c6163653a20726566756e64206661696c6564000000000000600082015250565b6000611a8f601a8361138c565b9150611a9a82611a59565b602082019050919050565b60006020820190508181036000830152611abe81611a82565b9050919050565b7f4d61726b6574706c6163653a20796f7520617265206e6f74207468652073656c60008201527f6c65720000000000000000000000000000000000000000000000000000000000602082015250565b6000611b2160238361138c565b9150611b2c82611ac5565b604082019050919050565b60006020820190508181036000830152611b5081611b14565b9050919050565b6000602082019050611b6c6000830184611215565b92915050565b7f4f6e6c792066656520726563697069656e742063616e206368616e676520726560008201527f63697069656e7400000000000000000000000000000000000000000000000000602082015250565b6000611bce60278361138c565b9150611bd982611b72565b604082019050919050565b60006020820190508181036000830152611bfd81611bc1565b9050919050565b6000819050919050565b6000611c29611c24611c1f84611141565b611c04565b611141565b9050919050565b6000611c3b82611c0e565b9050919050565b6000611c4d82611c30565b9050919050565b611c5d81611c42565b82525050565b6000602082019050611c786000830184611c54565b92915050565b7f4d61726b6574706c6163653a207072696365206d75737420626520706f73697460008201527f6976650000000000000000000000000000000000000000000000000000000000602082015250565b6000611cda60238361138c565b9150611ce582611c7e565b604082019050919050565b60006020820190508181036000830152611d0981611ccd565b905091905056fea26469706673582212205cbc4ef3ec9a902f1d2441475831eda07e739d78fa4b5c7def98d388cfac3cff64736f6c63430008180033",
  "linkReferences": {},
  "deployedLinkReferences": {}
}